:020000040800F2
:1000000000090020C1010008C322000829210008BE
:10001000C122000847070008BD28000800000000B2
:10002000000000000000000000000000AD240008F7
:100030003D0800080000000049240008AF24000823
:10004000DB010008DB010008DB010008DB01000820
:10005000DB010008DB010008DB010008DB01000810
:10006000DB010008DB010008DB010008DB01000800
:10007000DB010008DB010008DB010008DB010008F0
:10008000DB010008DB010008DB010008DB010008E0
:1000900049070008DB010008DB010008DB0100085C
:1000A000DB010008DB010008DB010008DB010008C0
:1000B000DB010008DB010008DB010008DB010008B0
:1000C000DB010008DB010008DB010008DB010008A0
:1000D000DB010008FD270008DB010008DB01000848
:1000E000DB010008DB010008DB010008DB01000880
:1000F000DB010008DB010008DB010008DB01000870
:10010000DB010008DB010008DB010008DB0100085F
:10011000DB010008DB010008DB010008DB0100084F
:10012000DB010008DB010008A9070008DB0100086B
:10013000DB010008DB010008DB010008DB0100082F
:1001400055070008DB010008DB010008DB0100089F
:10015000DB010008B5070008DB010008B128000832
:10016000DB010008DB010008DB010008DB010008FF
:10017000DB010008DB010008DB01000800000000D3
:10018000DB010008DB010008DB010008DB010008DF
:10019000DB010008DB010008DB010008DB010008CF
:1001A0000000000000000000DB010008DFF80CD0B8
:1001B00000F048FA00480047913400080009002088
:1001C0000648804706480047FEE7FEE7FEE7FEE7F1
:1001D000FEE7FEE7FEE7FEE7FEE7FEE7492500084B
:1001E000AD0100082DE9F05F0546002092469B46D0
:1001F00088460646814640241BE02846414647463D
:10020000224600F057F853465A46C01A914110D37F
:1002100011461846224600F03EF82D1A67EB0108F9
:100220004F4622460120002100F035F817EB000967
:100230004E41201EA4F10104DFDC484631462A4627
:100240004346BDE8F09FD2B201E000F8012B491E01
:10025000FBD270470022F6E710B513460A46044663
:100260001946FFF7F0FF204610BD30B50B4601469A
:1002700000202022012409E021FA02F59D4205D345
:1002800003FA02F5491B04FA02F52844151EA2F1EF
:100290000102F1DC30BD202A04DB203A00FA02F131
:1002A000002070479140C2F1200320FA03F3194364
:1002B00090407047202A04DB203A21FA02F0002106
:1002C000704721FA02F3D040C2F120029140084366
:1002D000194670472DE9FE4F804681EA0300C00FA2
:1002E0000C46009021F0004123F00045B8EB0200DD
:1002F000A94105D24046214690461C460B4602467F
:1003000023F00040104347D0270DC7F30A00C3F382
:100310000A510290401A019040286BDAC3F313008F
:1003200040F4801B0098924620B10023D2EB030AD0
:1003300063EB0B0B01985946C0F140025046FFF7A2
:10034000AAFF06460D4650465946019A00F08CF920
:1003500010EB08006141002487EA115284EAE77338
:100360001A4340D0009A62B3019A012A4FEA075219
:1003700015DC001B61EB02014FF0004202EA07525C
:10038000CDE90042001C41F5801132462B4600F0B9
:100390008CF903B0BDE8F08F40462146F9E7001B19
:1003A00061EB0201001C41F5801300185B4120182D
:1003B000A2F5001747EB030140EAD570B6196D416D
:1003C00011E06D084FEA360645EAC0754FEA07525C
:1003D000001B61EB0201001C41F5801149084FEA46
:1003E00030000019514132462B4603B0BDE8F04FB2
:1003F00000F04CB90098012240000023D0EB02022B
:1004000063EBE073009821464FEAE074B8EB00001C
:1004100061EB0401E9E783F000435BE781F0004111
:1004200058E72DE9FE4F81EA030404F0004421F06F
:10043000004100944FF0000B23F0004350EA010408
:100440005ED052EA03045BD0C3F30A54C1F30A55E9
:100450002C44A4F2F3340194A0FB0254C1F3130121
:1004600041F48011C3F3130343F4801301FB0244EE
:1004700000FB034E840A970A44EA815447EA8357F3
:10048000A4FB076802958D0A05FB07854FEA932CAC
:1004900004FB0C542705029D4FEA065847EA16371D
:1004A000B5EB08056EEB070C870E920E47EA811735
:1004B00042EA8312A7FB0201B6EB0B0164EB0004D6
:1004C0002B0D43EA0C335E1844EB1C50DA465146C0
:1004D000E7FB0201C5F313044FEA0B3343EA14535D
:1004E0004FEA0432019C43EA0603A4F10C0402948F
:1004F000009CCDE900B400F0D8F803B0BDE8F08F5F
:1005000000200146F9E72DE9F04D81EA030404F0EB
:10051000004B21F0004514464FF0000A23F0004143
:1005200050EA050220D054EA01021DD0C5F30A5753
:100530000246C5F31303C1F31300C1F30A5640F496
:10054000801543F48013A7EB0608101BD64608F26B
:10055000FD3873EB050002D308F1010801E09218A1
:100560005B41B8F1000F03DA00200146BDE8F08DD1
:1005700000204FF48011064684460EE0171B73EBF3
:10058000050705D3121B63EB050306434CEA010C78
:1005900049084FEA300092185B4150EA0107EDD15B
:1005A00052EA030012D082EA040083EA05010843FC
:1005B00005D0101BAB4106D20122002306E0002229
:1005C0004FF0004302E06FF0010253101AEB0600F7
:1005D0004CEB085110EB0A0041EB0B01BDE8F04D6C
:1005E00000F054B8C1F30A52C1F3130140F2FF33D3
:1005F00041F480119A4202DA00200146704740F22D
:1006000033439A42A2F2334202DC5242FFF752BE17
:10061000FFF741BE30B5041E71F1000404DB4FF05A
:100620000044404264EB0101141E73F1000405DB39
:100630001C464FF00043524263EB0403994208BF4B
:10064000904230BD064C074D06E0E06840F00103E3
:1006500094E8070098471034AC42F6D3FFF7AAFDA0
:10066000F435000814360008202A06DBCB17203AA0
:1006700041FA02F043EAE07306E041FA02F3D040A7
:10068000C2F12002914008431946704710B5141E6C
:1006900073F1000408DA401C41F1000192185B413B
:1006A0001A4301D120F0010010BD2DE9F04D924612
:1006B0009B4611B1B1FA81F202E0B0FA80F2203229
:1006C0009046FFF7E8FD04460F4640EA0A0041EA7B
:1006D0000B0153465A46084313D0114653EA010012
:1006E00019D0C8F140025046FFF7E4FD05460E461A
:1006F000504659464246FFF7CEFD084305D001203B
:1007000004E020463946BDE8F08D0020054346EA66
:10071000E0762C4337430A986305E40AA0EB08000F
:100720000022FD0A44EA47540A3002D5002001465F
:10073000E9E7010510196941DDE90845001969413A
:10074000BDE8F04DA2E7FEE7014800F0ECB900007B
:1007500068030020014800F0E6B900009003002083
:1007600038B50E4C4FF4007525600025A560E56096
:10077000082525610A4C050A25706070080AA070DA
:10078000E170100A20716271180AA071E3716B4662
:1007900022460249034800F066F838BDA400002054
:1007A0000900002068030020014800F087BC000019
:1007B00040040020014800F081BC0000A00400209B
:1007C00001681823CAB2103AB2FBF3F2054B6FF37B
:1007D0000901032A9B5CC36500D9091D8165084690
:1007E00070470000D435000810B5014600208B6921
:1007F0008A6A4FF0C07453B1B3F5005F15D072B17F
:10080000012A0CD0022A0AD0032A09D104E01AB125
:10081000012A06D0022A03D1C96AC90100D50120E4
:1008200010BDC96AA142FAD010BD002AF7D0012A32
:10083000F2D0022AF3D0032AF3D010BD704772B66B
:10084000FEE790F82020012A07D0022A05D0416A4D
:1008500041F48021416201207047006842690A43E7
:10086000426100207047F0B590F820500468A468F9
:10087000012D05D0022D03D0416A41F4802153E0BF
:1008800014F0406F01D1E5004BD5C4F30164022C94
:1008900003D9416A41F4000146E00125A5401D60ED
:1008A0008D684FF4C0739DB1CE6835434E6845EAFC
:1008B000C605066803EB0417F5514FF4C2750768C7
:1008C00005EB04150E697E51097D012905D009E06B
:1008D0000E88CD6845EA4655EBE701684E5946F467
:1008E00080764E511179D2F805504FF4C67641EA20
:1008F0000525016806EB04168D511178D2F8012008
:100900004FF4C47541EA0221026805EB0415515108
:10091000006803EB0411425842F0010242500020EB
:10092000F0BD416A41F4001141620120F0BD0000B8
:1009300010B590F82020012A07D0022A05D0416A7C
:1009400041F480214162012010BD3B48D0F80022D3
:1009500042F00102C0F80022D0F8002222F47C52BA
:10096000C0F80022D0F800224B6A42EA0322C0F805
:1009700000220A7D02F01F0301229A40D0F81C32A7
:100980009343C0F81C32CB69B3B9D0F80C3293430F
:10099000C0F80C328C894B6864F31F434C6900EB40
:1009A000C404C4F840320C890B6864F31F434C69DB
:1009B00000EBC404C4F84432CB69012B16D1D0F843
:1009C0000C321343C0F80C320C884B6864F31F439D
:1009D0004C6900EBC404C4F840320C89CB6864F362
:1009E0001F434C6900EBC404C4F844328B69002BEC
:1009F000D0F804320ED01343C0F804320B69002B38
:100A0000D0F8143208D01343C0F81432096A01290F
:100A100004D008E09343EFE79343F5E7D0F81C12C6
:100A20001143C0F81C12D0F8001221F00101C0F8E7
:100A30000012002010BD000000640040704730B577
:100A400090F82040012C05D0022C03D0416A41F4DB
:100A500080215DE00468002955D02469A40754D0A2
:100A60004FF4D874056804EB01142D5915F00405F2
:100A7000956005682D594ED0ED08556005682C59D4
:100A800004F00204D4604FF4DA74056804EB011436
:100A90002D5905F00F05156105682D59C5F307257A
:100AA000956105682C59240C54614FF4DC7204687C
:100AB00002EB0112A4581C700468A458240A5C704C
:100AC0000468A458240C9C700468A258120EDA70B2
:100AD0004FF4DE72046802EB0112A4581C71046822
:100AE000A458240A5C710468A458240C9C710468FE
:100AF000A258120EDA71006881B1016941F020013B
:100B00000161002030BDE468A8E7416A41F40011AA
:100B10004162012030BD6D0D1560AFE7C16841F045
:100B20002001C160EDE72DE9F05F05460068002473
:100B30004669D0F804908768D0F80CB0D0F810A0BF
:100B4000D0F81880F10748D0F90714D0012181604E
:100B5000B80703D5284600F050FA0CE0780702D514
:100B60004FF4006407E0380702D54FF4805402E0E8
:100B7000284600F041FAF80516D529684FF4807030
:100B80008860B80503D5284600F039FA0CE07805EE
:100B900002D544F4005407E0380502D544F48044FB
:100BA00002E0284600F02AFAF80316D529684FF427
:100BB00080308860B80303D5284600F022FA0CE0A4
:100BC000780302D544F4004407E0380302D544F426
:100BD000803402E0284600F013FA300707D55FEAB8
:100BE000CB6004D52968102044F40074C8607007F5
:100BF0004FF0080707D55FEA0B7004D52868C76077
:100C0000284600F099F9B00706D52868C068800723
:100C100002D0284600F092F9700607D55FEACA6054
:100C200004D52968102044F480640861B00607D513
:100C30005FEA0A7004D528680761284600F0ACF91D
:100C4000F00606D528680069800702D0284600F023
:100C5000A4F9B00308D55FEAC96005D5296810205A
:100C60004860284600F09AF9F00307D55FEA09705A
:100C700004D528684760284600F0C4F9300446D5FA
:100C80005FEA497040D5F00504D55FEAC87001D02D
:100C900044F00104B00504D55FEA887001D544F042
:100CA0000204700504D55FEA487001D544F00404DD
:100CB000300529D518F0700F26D008F070004028B4
:100CC00015D006DC102809D020280AD0302816D1EB
:100CD0000AE050280ED0602811D10EE044F008043C
:100CE0000DE044F010040AE044F0200407E044F072
:100CF000400404E044F0800401E044F48074286877
:100D0000816921F070018161296804204860002C0C
:100D100005D0686A204368622846FFF78FFEBDE869
:100D2000F09F70B5040003D094F8200010B104E0E7
:100D3000012070BD204600F081F82068016841F074
:100D40000101016000F020FC0546052604E000F0EA
:100D50001BFC401B0A2811D820684068C007F6D049
:100D60002068016821F00201016000F00DFC0546D9
:100D70000BE000F009FC401B0A2806D9606A40F429
:100D80000030606284F82060D2E720684068800705
:100D9000EFD4207E0128206801683DD021F0800139
:100DA0000160607E01282068016838D021F0400190
:100DB0000160A07E01282068016833D021F0200165
:100DC0000160E07E0128206801682ED041F010010A
:100DD0000160207F01282068016829D021F00801E6
:100DE0000160607F01282068016824D021F004019F
:100DF0000160D4E902010843D4E904121143084315
:100E00006168491E08432168C861002060620120B2
:100E100084F82000002070BD41F08001C0E741F05F
:100E20004001C5E741F02001CAE721F01001CFE7FA
:100E300041F00801D4E741F00401D9E7F0B587B0EB
:100E4000044614216846FFF705FA364B3648DFF8AA
:100E5000D0E01968D4F800C0334A032502260927D8
:100E600010300024491CF44522D11960012907D112
:100E7000016841F000710160006800F000700590A9
:100E8000106840F0080010601068CDE9005600F0CE
:100E90000800CDE9047069462448CDE9024500F018
:100EA00059FA00221146142000F0DCFB142032E035
:100EB000DFF87CE0F44530D1D0F800C04CF0806C15
:100EC000C0F800C0D0F800C001290CF0806CCDF84B
:100ED00014C0196007D1016841F000710160006819
:100EE00000F000700590106840F00200106010687B
:100EF00002AB00F0020005906020CDE9000683E817
:100F0000B00069460B4800F025FA00221146402047
:100F100000F0A8FB402000F097FB07B0F0BD0000F8
:100F2000006400403000002030380240000C0240D5
:100F300000680040000402407047000000B58BB01C
:100F400001AB03AA0021FFF77AFD0398A0F201206C
:100F500006281AD80E49C0B200EB800208700D496D
:100F600001EB420031F812300381BDF804305BBA66
:100F700021F81230BDF8061049BA4180BDF80810BA
:100F800049BA81809DF80A1081710BB000BD000044
:100F900000000020440000207047704770470000A8
:100FA00070B5044690F82000012804D0606A40F42F
:100FB0000020606218E0022084F8200020680168A8
:100FC00021F00101016000F0DFFA05460EE000BFEC
:100FD00000F0DAFA401B0A2808D9606A40F40030B1
:100FE0006062052084F82000012070BD2068406800
:100FF000C007EDD1606270BD7047704770477047A1
:101000007047704770472DE9F0410446876D00F046
:10101000BBFA064694F835000025022806D0802049
:10102000606584F834500120BDE8F08120680168D3
:1010300021F0160101602068416921F080014161C1
:10104000206C08B9A06C20B12068016821F008016B
:1010500001602068016821F0010101600CE000F0EE
:1010600093FA801B052807D920206065032084F8A7
:10107000350084F83450D7E720680068C007EED107
:1010800094F85C103F208840B860012084F8350057
:1010900084F834500020C7E790F83510022903D0B7
:1010A0008021416501207047052180F835100068D6
:1010B000016821F001010160002070472DE9F8432B
:1010C00004464FF00009CDF8009063484FF41651E4
:1010D000A56D0068B0FBF1F72E6894F85C1008204D
:1010E00000FA01F131420FD021680A6852070BD58E
:1010F0000A6822F004020A6094F85C108840A86034
:10110000606D40F00100606594F85C104FF00108DC
:1011100008FA01F0304208D021684969090604D56F
:10112000A860606D40F00200606594F85C100420D7
:101130008840304208D021680968890704D5A86032
:10114000606D40F00400606594F85C1010208840E9
:10115000304218D021680968090714D5A8602068B2
:101160000168490304D50068000308D5A16C07E0B5
:101170000168C90503D4016821F008010160216CF0
:1011800009B12046884794F85C10202088403042FE
:1011900031D021680968C9062DD5A86094F83500BA
:1011A00005282068016806D0490347D50068000378
:1011B0001DD4616C1CE021F01601016020684169BA
:1011C00021F080014161206C08B9A06C20B1206839
:1011D000016821F00801016094F85C103F2088400C
:1011E000A86084F8358084F83490216D1FE0E16BAD
:1011F00009B120468847606D00282BD0606DC0077C
:1012000014D0052084F835002068016821F0010120
:1012100001600098401C0090B84203D82068006824
:10122000C007F6D184F8358084F83490E16C002949
:1012300010D001B02046BDE8F04308470168C90559
:10124000D5D4016821F01001016084F8358084F85C
:101250003490CCE7BDE8F883400000202DE9F04150
:10126000044600F091F906465CB1022084F835008E
:10127000002584F834502068016821F001010160E4
:101280000DE00120BDE8F08100F07EF9801B05280B
:1012900005D920206065032084F83500F2E7206836
:1012A0000068C007F0D12268116820480140D4E9E5
:1012B00001031843D4E903363343184363691843E1
:1012C000A3691843E3691843236A18430843616A12
:1012D000042903D1D4E90B13194308431060206893
:1012E0004069666A20F0070130460E430127042852
:1012F0000CD1A06A0643E06A40B12046FFF774FAB9
:1013000020B14020606584F83570BAE720684661F6
:101310002046FFF755FA94F85C203F219140816008
:10132000656584F835700020ACE700003F8010F060
:1013300070B5044600F028F90546601C02D0044848
:101340000078044400F020F9401BA042FAD370BD9D
:10135000340000202DE9F84FDFF8F8A10022012425
:101360000AF1040B03254FF00F090BF1040E00BF27
:101370000B6804FA02F63340B34270D10F7907F0DC
:101380000307012F01D0022F16D187684FEA4208C8
:1013900005FA08FC27EA0C07D1F80CC00CFA08FC87
:1013A0004CEA070CC0F808C04768B7430E79C6F38B
:1013B000001696403E4346600E79F643B6070AD0C3
:1013C000C7684FEA420C05FA0CF6B7438E6806FA76
:1013D0000CF63E43C6600E7906F00306022E10D1CD
:1013E000D60800EB8608D8F8206057074FEAD76C7C
:1013F00009FA0CF7BE430F6907FA0CF73743C8F830
:10140000207006684FEA420C05FA0CF7BE430F79CC
:1014100007F0030707FA0CF7374307604E6816F426
:10142000403F1CD04C4E376847F4804737603668E1
:1014300022F0030706F480460096484E07EB060CA0
:10144000DCF8086897073F0F09FA07F826EA08064C
:10145000DFF80C81404503D14FF0000841E072E015
:10146000DFF80081404502D14FF0010839E0DFF894
:10147000F880404502D14FF0020832E0DFF8EC80FE
:10148000404502D14FF003082BE0DFF8E4804045EF
:1014900002D14FF0040824E0DFF8D880404502D1A3
:1014A0004FF005081DE0DFF8D080404502D14FF035
:1014B000060816E0DFF8C480404502D14FF0070867
:1014C0000FE0DFF8BC80404502D14FF0080808E08B
:1014D000DFF8B080404502D14FF0090801E04FF03D
:1014E0000A0808FA07F848EA0608CCF80888DAF883
:1014F00000605746D1F804C09E435FEACC3C00D55B
:101500001E433E60DBF800605F46D1F804C09E4396
:101510005FEA8C3C00D51E433E60DEF800607746F3
:10152000D1F804C09E435FEACC2C00D51E433E6038
:10153000084F0C373E68D1F804C09E435FEA8C2CFC
:1015400000D51E433E60521C102AFFF411AFBDE8C7
:10155000F88F0000003C0140443802400030014058
:10156000000002400004024000080240000C02405B
:10157000001002400014024000180240001C02400B
:1015800000200240002402400148806870470000AB
:10159000340000200248816802781144816070475D
:1015A000340000200B4810B5016841F4007101605F
:1015B000016841F480610160016841F4807101605B
:1015C000032000F06FF8002000F006F800F024F887
:1015D000002010BD003C024070B50D4D04464FF494
:1015E0007A712878B1FBF0F00A490968B1FBF0F094
:1015F00000F00CFB48B9102C07D200222146501EE7
:1016000000F030F800206C6070BD012070BD00005B
:1016100034000020400000200A4808B5016841F469
:1016200080410160006800F4804000900548001F80
:10163000016841F080510160006800F08050009026
:1016400008BD000044380240002809DB00F01F02FA
:10165000012191404009800000F1E020C0F8001114
:1016600070470000F0B40E4B1B680C46C3F3022316
:10167000C3F10705042D00D90425191D072901D23E
:10168000002300E0DB1E012606FA05F1491E214079
:1016900099409E40761E16403143F0BC01F022B9BD
:1016A0000CED00E0064900F0070208684FF6FF0362
:1016B000184040EA0220034A1043086070470000C7
:1016C0000CED00E00000FA052DE9F0470E4605009C
:1016D00065D0DFF81481D8F80000F7B200F00F00F1
:1016E000B04207D288F80070D8F8000000F00F0070
:1016F000B04254D128683D4C810712D5400703D52C
:10170000206840F4E05020602878000703D5206866
:1017100040F4604020602068A96820F0F000084391
:1017200020602878C0072DD0304968680839012822
:1017300012D0022813D0032811D009688907002984
:101740002DDA216821F0030101432160FFF71CFF1E
:10175000814641F2883A0EE009688903EFE709689B
:101760008901ECE7FFF710FFA0EB0901514502D911
:101770000320BDE8F0872068696800F00C00B0EB3A
:10178000810FEFD1D8F80010404601F00F01B142AF
:1017900007D90770006800F00F00B04201D00120A7
:1017A000E7E72878400705D52068E96820F4E0508D
:1017B000084320602878000706D52068296920F4AE
:1017C000604040EAC100206000F038F82168084A13
:1017D000C1F30311515CC84006490860064800681F
:1017E000FFF7FAFE0020C4E7003C02400838024040
:1017F000DC3500084000002038000020044805497E
:1018000000680968044AC1F38221515CC8407047EE
:101810004000002008380240EC3500080448054923
:1018200000680968044AC1F34231515CC8407047FE
:101830004000002008380240EC350008154810B57B
:10184000006810F00C02144813D01449042A0FD079
:10185000082A0ED10F4C241F2268236802F03F0291
:101860005B0207D52068C0F38810A0FB010106E0E9
:10187000084610BD2168C1F38811A1FB00010023B7
:10188000FEF7B0FC2168C1F30141491C4900B0FBDF
:10189000F1F010BD083802400024F400001BB7002E
:1018A0002DE9F84F04006ED02078DFF84C93C00784
:1018B000A9F104054AD009F104000168C1F38101CE
:1018C000012908D00068C0F3810002280AD1D9F8A4
:1018D0000000400206D52868800337D560680028DC
:1018E000E1D033E06068B0F5803F10D0B0F5A02FB4
:1018F000286810D020F480302860286820F48020E8
:1019000028606068A8B1FFF73FFE06460DE0286832
:1019100040F48030F4E740F480202860F7E700BF0F
:10192000FFF732FE801B642873D828688003F7D540
:101930000CE0FFF729FE064605E000BFFFF724FE96
:10194000801B6428F0D828688003F7D42078DFF85B
:10195000AC8280074FF0000A3ED5A748001D016801
:1019600011F00C0F08D00068C0F3810002280BD1E1
:10197000D9F80000400207D42868800716D5E0682F
:10198000012800D112E033E1E068B8B10120C8F8C5
:101990000000FFF7F9FD064605E000BFFFF7F4FD84
:1019A000801B0228C0D828688007F7D528682169DD
:1019B00020F0F80040EAC10028600DE0C8F800A05F
:1019C000FFF7E2FD064604E0FFF7DEFD801B02287C
:1019D0001FD828688007F7D42078000722D5864FC3
:1019E00087486169703771B101210160FFF7CCFD53
:1019F000064604E0FFF7C8FD801B022809D83868B6
:101A00008007F7D50EE0C0F800A0FFF7BDFD064641
:101A100005E082E0FFF7B8FD801B02287DD838681A
:101A20008007F7D42078400768D5DFF8CCB10027CD
:101A30000BF13C0BDBF80000C0000BD4DBF800100E
:101A400041F08051CBF80010DBF80000012700F0D6
:101A5000805000906B4E3068C00510D4306840F460
:101A600080703060FFF790FD009005E0FFF78CFD7F
:101A70000099401A022850D83068C005F6D55E4E4D
:101A8000A0686C3601280FD00528306810D020F0EF
:101A900001003060306820F004003060A068B8B108
:101AA000FFF772FD00900FE0306840F00100F4E7AE
:101AB00040F004003060F7E7FFF766FD0099411A37
:101AC00041F28830814266D830688007F4D50EE054
:101AD000FFF75AFD009007E0FFF756FD0099411A05
:101AE00041F28830814256D830688007F4D42FB153
:101AF000DBF8001021F08051CBF80010A069C8B3CA
:101B00003D49091D0968C1F3810102294AD0022813
:101B1000504607D0C8F8600000E03CE0FFF734FD15
:101B200004463BE04746C8F86000FFF72DFD064637
:101B300005E000BFFFF728FD801B02282BD828688E
:101B40008001F7D4D4E907010843A16A2E4A490865
:101B500002EB0141626A41EA8211084394F82C10B9
:101B600040EA0161C9F8001001203866FFF70CFD5A
:101B7000044606E03EE000BFFFF706FD001B02281A
:101B800009D828688001F7D534E000BFFFF7FCFCD6
:101B9000001B022802D90320BDE8F88F28688001C5
:101BA000F4D427E00128F7D0D9F80000E26900F466
:101BB000800191421CD1226A00F03F01914217D16D
:101BC00047F6C071626A0140B1EB821F10D1A26A70
:101BD0004FF0FF3300F4403103EB5202B1EB024F00
:101BE00006D194F82C1000F07060B0EB016F01D0BA
:101BF0000120D1E70020CFE704380240000047422F
:101C0000800E4742007000400000FFFF10B5401EEC
:101C1000B0F1807F01D3012010BD4FF0E02460615E
:101C20000F21601700F05EFE0020A06107202061F8
:101C3000002010BD70477047F8B501680446086879
:101C4000CA684B6910F00F0F4FF0000559D003F030
:101C5000010602F49077374365D0C10705D0D1055E
:101C600003D5216C41F001012164410705D5D90755
:101C700003D0216C41F002012164810705D5D90709
:101C800003D0216C41F004012164010707D502F063
:101C90002001314303D0216C41F008012164216C03
:101CA00000293AD0800604D5900602D5204600F0DF
:101CB00082FC20684069216CC0F38010090700D4C1
:101CC00060B3204600F050FC20684069400621D5F2
:101CD0002068143050E8001F21F0400140E8001255
:101CE000002AF5D1A06BA8B16C490165A06BFFF784
:101CF000D3F9002811D0A06B016D01B0BDE8F04010
:101D0000084783060FD593060DD52046BDE8F84059
:101D100000F051BC2046FFF78EFFF8BD2046FFF7CC
:101D20008AFF2564F8BD266B2023012E79D1C606D3
:101D300077D5D60675D5086848680090486940068A
:101D400040D5A16B086840680004000CEAD0A28D61
:101D50008242E7D9E085C869B0F5807F2DD0206840
:101D60000C3050E8001F21F4807140E80012002A76
:101D7000F5D12068143050E8001F21F0010140E83F
:101D80000012002AF5D12068143050E8001F21F01D
:101D9000400140E80012002AF5D184F83E30256366
:101DA00020680C3050E8001F21F0100140E80012BC
:101DB000002AF5D1A06BFFF726F9A08DE18D401A1E
:101DC00081B229E0A08DE18D401A81B2E08D00281A
:101DD000A8D00029A6D020680C3050E8002F22F4AB
:101DE000907240E80026002EF5D12068143050E8AB
:101DF000002F22F0010240E80026002EF5D184F8E1
:101E00003E30256320680C3050E8002F22F010028D
:101E100040E80023002BF5D12046FFF70BFFF8BD6B
:101E2000FFE705062BD5150629D594F83D00212896
:101E3000F5D1A068B0F5805F01D12069B0B1206A0A
:101E4000411C2162216800784860E08C401E00043B
:101E5000000CE084E3D12068C16821F08001C160FA
:101E60002068C16841F04001C160D8E7206A00885D
:101E7000C0F308004860206A801C2062E5E7400645
:101E8000CDD55006CBD5CA68204622F04002CA60A4
:101E900084F83D3000F047F9C1E7000059250008FB
:101EA00070B5040004D094F83D00002510B106E0A0
:101EB000012070BD84F83C50204600F023F8242017
:101EC00084F83D002068C16821F40051C1602046BB
:101ED00000F0D2FB2068016921F490410161206883
:101EE000416921F02A0141612068C16841F4005133
:101EF000C1602564202084F83D0084F83E00002065
:101F000070BD00002DE9F04786B0064614216846F2
:101F1000FEF7A0F94F484E4B326800244D49143863
:101F2000022503274FF480694FF4403A9A424AD180
:101F30000A6842F010020A60096801F01001059178
:101F4000016841F002010160016801F002010591A0
:101F5000016841F001010160006802AA00F001007F
:101F600005908020CDE900054FF0070882E8900138
:101F700069463948FFF7EEF92802CDE9000502AAC3
:101F8000694682E890013548FFF7E4F9354D344859
:101F900028604FF00060C5E90104C5E903496C61A0
:101FA000AC61C5E9074A28466C62FFF757F908B1EA
:101FB000FEF745FCB563002211462520AE63FFF70E
:101FC00051FB25203EE0284B9A423DD10A6842F061
:101FD00020020A60096801F020010591016841F0C2
:101FE000400101600068029400F0400005904FF449
:101FF0008440CDE900050820CDE9037069461B48FF
:10200000FFF7A8F9174D16486035603028604FF08B
:102010002060686005F10802402082E811026C61CE
:10202000AC61C5E9074A28466C62FFF717F908B1A9
:10203000FEF705FC7563002211464720AE63FFF7EB
:1020400011FB4720FFF700FB06B0BDE8F08700005A
:1020500000100140443802400004024000000240E9
:102060004064024040040020001401400018024077
:10207000704700002DE9F843044690F83D001F46E4
:1020800016460D4620284CD1C5B1BEB194F83C008F
:10209000012846D0012084F83C004FF00008C4F825
:1020A0004080212084F83D00FFF76EFAA684814627
:1020B000E684A068B0F5805F03D004E00120BDE8AD
:1020C000F883206928B12E465FF0000584F83C8033
:1020D0000EE00026FAE78021204600F053FBA0B96D
:1020E000AEB116F8010B21684860E08C401EE08418
:1020F000E08C4B464FF0000200970028EBD14FF0E8
:102100004001204600F03EFB30B10320D7E735F810
:10211000020BC0F30800E6E7202084F83D00002011
:10212000CDE70220CBE77047FEE700000F4810B56F
:102130000D4901600321416000214FF410228160AC
:10214000C0E903124FF400124261017641768176B4
:10215000C17601774177FEF7E4FD002803D0BDE8A2
:102160001040FEF76CBB10BD006400406803002007
:102170000F4810B50D4901600321416000214FF463
:1021800010228160C0E903124FF40012426101760F
:1021900041768176C17601774177FEF7C2FD00284E
:1021A00003D0BDE81040FEF74ABB10BD00680040F8
:1021B000900300200D4808B5016841F480010160DA
:1021C0000068002200F48000009011463A20FFF7DA
:1021D00049FA3A20FFF738FA002211464520FFF766
:1021E00041FABDE808404520FFF72EBA30380240DA
:1021F000154808B5016841F002010160016801F06D
:1022000002010091016841F040010160016801F0A4
:1022100040010091016841F001010160016801F095
:1022200001010091016841F008010160016801F0BD
:1022300008010091016841F080010160006800F030
:102240008000009008BD0000303802400C4810B5F6
:102250000A4901600B494160002181600C22C16084
:10226000C0E904128161C161FFF71AFE002803D0A2
:10227000BDE81040FEF7E3BA10BD000000100140B9
:10228000B8030020A08601000C4810B50A4901607F
:102290004FF4E1314160002181600C22C160C0E94E
:1022A00004128161C161FFF7FBFD002803D0BDE886
:1022B0001040FEF7C4BA10BD00140140FC0300201A
:1022C000FEE7FEE7A0B1D0ED101AC0ED111A90EDB7
:1022D0000F1A80ED101AC0ED060A80ED070A30EEE5
:1022E000C00A80ED0F0A017829B101293BD078E0BE
:1022F0009FED3D0A7047D0ED010A60EE801AC0EDF7
:10230000091AD0ED0A0A90ED022A42EE000A30EED8
:10231000410AC0ED0A0A90ED0D2A80ED0E2A90EDDB
:102320000C2A80ED0D2A80ED0C0A90ED031A21EEA7
:10233000001A80ED0B1A90ED050AF4EEC00AF1EEDA
:1023400010FA09DCB1EE400AF4EEC00AF1EE10FA20
:1023500002D390ED0A0A01E080ED0A0A31EE800A0C
:1023600030EE010A2BE070EE410A90ED012A20EEDA
:10237000822A80ED092AD0ED020A60EE800AC0EDC3
:102380000A0AD0ED0D2A72EE200AC0ED0E2AD0ED19
:102390000C2AC0ED0D2AF0EE002A01EE620A30EEA2
:1023A000210A80ED0C0A90ED031A21EE000A80ED5F
:1023B0000B0A30EE800AD0ED080A30EE200A80EDDC
:1023C000080AD0ED040AB4EEE00AF1EE10FA06DCD9
:1023D000F1EE600AB4EEE00AF1EE10FA01D2C0EDBF
:1023E000080A90ED080A704700000000002828D075
:1023F000002A26D0017092ED001A80ED011A92EDAC
:10240000011A80ED021A92ED021A80ED031A80ED96
:10241000040A9FED0C0AC0ED050A80ED0E0A80ED5E
:102420000D0A80ED0C0A80ED080A80ED0B0A80EDA4
:102430000A0A80ED090A80ED110A80ED100A80ED8C
:102440000F0A7047000000007047000030B5144BC1
:102450001C68656945F0400565611B68DC6844F0EF
:102460001004DC600F4B1C68256825F00105256011
:102470001C682568ED07F7D11D680B4CAC601C6823
:10248000E06018680161186842601868016841F4EA
:10249000802101601868016841F00101016030BDD0
:1024A000B803002040040020041001407047FFF7EB
:1024B00071B8000030B593B030216846FDF7CAFE10
:1024C00014210CA8FDF7C6FE1D480025016841F047
:1024D00080510160006800F0805011901948016837
:1024E00041F4404101600068022400F44040119032
:1024F00001200090000401908001CDE906400620F3
:102500000890A820CDE9090404200B906846FFF745
:10251000C7F908B172B6FEE70CA90F2081E83100B7
:102520004FF4A0500F904FF48050109005210CA84C
:10253000FFF7CAF8002801D072B6FEE713B030BD2D
:1025400040380240007000400248016841F47001C8
:102550000160704788ED00E010B5806B0021C185F7
:10256000C184FFF768FB10BD01680C3151E8002FF2
:1025700022F4907241E80023002BF5D10168143158
:1025800051E8002F22F0010241E80023002BF5D191
:10259000016B012909D101680C3151E8002F22F0AB
:1025A000100241E80023002BF5D1202180F83E10D5
:1025B00000210163704708B590F83E10222901D030
:1025C000022008BD82684FF480539A4201D101690C
:1025D00021B1816A9A421BD04AB10AE00268816A3D
:1025E0005268C2F308020A80816A891C08E0026905
:1025F00072B10268526802F07F020A70816A491C57
:102600008162C18D491E0904090CC18503D019E0FE
:1026100002685268F1E70168CA6822F02002CA60C5
:102620000168CA6822F48072CA6001684A6922F0AF
:1026300001024A61202180F83E10016B012903D07C
:10264000FFF716FD002008BD0021016301680C3171
:1026500051E8002F22F0100241E80023002BF5D1B1
:1026600001680A68D20602D50A6849680091818D1E
:10267000FFF7E0FAE6E7000070B50446006801697C
:10268000E26821F44051114301612169A068E269C7
:1026900008436169114308432168CA6849F20C6321
:1026A0009A430243CA6020684169A26921F44071DB
:1026B0001143416131492068884202D03049884243
:1026C00002D1FFF7ABF801E0FFF798F8E2690023C9
:1026D000192164253226B2F5004F626828D0A0FB8C
:1026E0000101930F9200FDF77DFD0146B0FBF5F06F
:1026F0006FF01802504301EB800006EB0010B0FBB6
:10270000F5F000F0F002B1FBF5F002EB0012B1FBC6
:10271000F5F06FF01803584301EB800006EB001052
:10272000B0FBF5F000F00F0021681044886070BD28
:10273000A0FB010192185B41FDF754FD0146B0FB7F
:10274000F5F00201B1FBF5F06FF01803584301EB0F
:10275000800006EBC000B0FBF5F000F0F80002EBE3
:102760004002B1FBF5F0584301EB800006EBC000DE
:10277000B0FBF5F000F00700D6E7000000100140C4
:10278000001401402DE9F041984617460E460446D4
:10279000069D27E0681C25D02DB1FEF7F5FEA0EBC5
:1027A0000800A8421ED920680C3050E8001F21F410
:1027B000D07140E80012002AF5D12068143050E8AA
:1027C000001F21F0010140E80012002AF5D120206D
:1027D00084F83D0084F83E00002084F83C0003208B
:1027E000BDE8F0812068006836EA000004D00020CF
:1027F000B842CFD00020F3E70120F9E7264818B40B
:1028000000680168890604D501684068009018BC1A
:10281000704722490968C906F9D501684068204A0D
:102820000090106801684FF024030C031D490468F0
:1028300024F00104046016D410684468C4F1240430
:10284000A4B20C8043601068016841F4002101606B
:102850001068016841F001010160122CD7D11249C2
:1028600001F1160015E014686068C0F1240080B220
:10287000088063600D498B6A23F400238B62116822
:102880000A6842F001020A601228C0D1064901F12B
:102890003A0018BC00F020BEB80300200010014030
:1028A00040040020240000200802002000600240B4
:1028B0000148FFF7C1B90000FC030020FEE700005B
:1028C00037B514460846064B6A46214600F0ECF838
:1028D00004466946002000F07EFC20463EBD000014
:1028E000D73100080907090E002804DB00F1E020B9
:1028F00080F80014704700F00F0000F1E02080F82D
:10290000141D704702E008C8121F08C1002AFAD13E
:1029100070477047002001E001C1121F002AFBD15F
:10292000704700002DE9FF5F82B00021DDE904302F
:10293000020DDDF840B0034318D044F61050A2F267
:10294000FF3242431514119801281FD0A5EB0B004C
:10295000401C5FEA000A4FF000064E4FDFF8389146
:10296000B046504615D5CAF1000413E01198012471
:102970004AA3012801D16FEA0B010298119AC0E91C
:102980000031C0E9024206B0BDE8F09FCBF1000083
:10299000DFE704460021404A491842EB0450CDE9E4
:1029A000001012E0E00707D032463B464046494659
:1029B000FDF737FD8046894632463B4610461946AC
:1029C000FDF72FFD06460F466410002CEAD1DDE925
:1029D0000401DDE90023BAF1000F06DAFDF721FD5D
:1029E00042464B46FDF71DFD05E0FDF78CFD4246D6
:1029F0004B46FDF788FD04460E460022284BFDF7A6
:102A000009FE03D84FF0FF30014607E00022254BB6
:102A100020463146FDF75EFCFDF7E4FD102409E099
:102A2000002C0ADB0A220023FDF7DCFB039B30327B
:102A30001A55641E50EA0102F2D1641C039AC4F1D3
:102A400011031444119A012A03D0012208430DD125
:102A50000AE0084304D000204FF0110B119072E7F8
:102A6000A3EB0B056D1E0DE05B4504DD4FF000028E
:102A700005F1010504E003DA4FF00002A5F10105BC
:102A8000002AECD002981199C0E90231C0E9004552
:102A900079E70000000014400000F03F3000000023
:102AA0000000F0430000E03F2DE9FF4F95B09B464A
:102AB0008946064600250FE2252877D100242746BF
:102AC000F84A0121059400E0044316F8013F203B39
:102AD00001FA03F01042F7D130782A2811D06FF0B4
:102AE0002F033078A0F13002092A16D8059A44F055
:102AF000020402EB820203EB42021044761C0590B2
:102B0000EFE759F8042B0592002A03DA504244F407
:102B10000054059044F00204761C30782E2816D11B
:102B200016F8010F44F004042A280DD06FF02F028C
:102B30003078A0F13003092B09D807EB870302EBAB
:102B40004303C718761CF3E759F8047B761C3078EA
:102B50006C280FD006DC4C2817D068280DD06A28C6
:102B600014D104E0742810D07A280FD10DE044F479
:102B700000140AE044F4801401E044F44014727834
:102B8000824202D104F58014761C761C30786628C7
:102B90000BD013DC582877D009DC002875D04528E5
:102BA000F6D04628F4D047281AD19DE118E06328D2
:102BB00035D0642879D0652812D195E1702873D07A
:102BC00008DC6728F1D069286FD06E280DD06F28F7
:102BD00006D1B5E073282CD0752875D0782874D02C
:102BE0005A46179990476D1C75E1C4F302500228AC
:102BF00009D003280DD0D9F8001004280DD00D609D
:102C000009F1040967E1D9F80010EA17C1E9005297
:102C1000F6E7D9F800100D80F2E70D70F0E719F82B
:102C2000041B8DF8001000208DF80100EA460120F9
:102C300003E059F804AB4FF0FF3061074FF000019B
:102C400002D40DE008F101018846B9420FDA80454F
:102C5000F8DB1AF808100029F4D108E008F10101A6
:102C600088468142FADB1AF808100029F6D1059847
:102C70005B46A0EB080721463846179A00F094FA05
:102C8000284400EB080507E04DE029E10DE01AF8C3
:102C9000010B5A4617999047B8F10108F7D25B46E5
:102CA00021463846179A13E142E00A220092C4F303
:102CB00002524FF0000A022A08D059F804CB032A26
:102CC0004FEAEC710AD00DE029E02AE009F1070192
:102CD00021F00702F2E802C1914609E00FFA8CFCEC
:102CE0004FEAEC71042A03D14FFA8CFC4FEAEC71E5
:102CF000002907DA0A460021DCF1000C61EB020131
:102D00002D2202E0220504D52B228DF80420012279
:102D100003E0E20701D02022F7E7904659E00A21BC
:102D200002E010220DE010214FF0000A00910BE0AC
:102D300010224FF0000A44F004040827009203E038
:102D400008224FF0000A0092C4F30252022A05D072
:102D500059F804CB0021032A08D009E009F1070142
:102D600021F00702F2E802C1914605E01FFA8CFC4F
:102D7000042A01D10CF0FF0C4FF00008220728D5DF
:102D8000702806D0009B83F0100353EA0A0305D095
:102D90000EE040228DF80420012208E05CEA0102E6
:102DA00006D030228DF804208DF8050002229046CE
:102DB000009B83F0080353EA0A030AD15CEA01028C
:102DC00001D1620705D530228DF804204FF00108AB
:102DD0007F1E582804D034A003900EA802900DE066
:102DE00036A0F9E753466046009AFDF7FBF98446A2
:102DF0000398825C0298401E029002705CEA010017
:102E0000F0D1029806A9081A00F1200A600702D53D
:102E100024F4803400E00127574502DDA7EB0A00C7
:102E200000E0002000EB0A01009005984144401AA0
:102E30000590E00306D45B462146179A059800F0FA
:102E4000B3F90544002706E001A85A46C05D17996A
:102E500090476D1C7F1C4745F6DBE0030CD55B46B5
:102E60002146179A059800F09FF9054404E03020A8
:102E70005A46179990476D1C0099481E00900029EA
:102E8000F5DC08E0029802995A460078491C029144
:102E9000179990476D1CBAF10001AAF1010AF1DC03
:102EA00065E100000928010030313233343536370E
:102EB0003839616263646566000000003031323386
:102EC0003435363738394142434445460000000026
:102ED00000F058F90544761C307800287FF4ECADFA
:102EE00019B02846BDE8F08F620700D4062709F123
:102EF000070222F0070CFCE80223E14603F0004839
:102F00005FEA080C02D00FF2702C0DE05FEA045C5F
:102F100002D50FF2682C07E05FEAC47C02D00FF202
:102F2000602C01E0AFF2700C4FF0FF3823F000434B
:102F3000CDF850C065280CD006DC452809D04628BD
:102F40001DD047283DD13DE0662818D067287ED1A6
:102F500038E00021112F01DB112000E0781CCDE9C1
:102F6000000106A90EA8FFF7DDFCDDE90F010E9AAE
:102F700003910021009207F1010A04914DE04FF006
:102F800000400097CDE9011006A90EA8FFF7CAFC82
:102F9000DDE90F0203920E9B11990022DDF80CA0CF
:102FA0000093049211B9791C00EB010AB7EB0A00F7
:102FB00004D4C0F1FF3007F1010A0490AAEB070026
:102FC000019044E0012F00DA01270021112F01DDDB
:102FD000112000E03846CDE9000106A90EA8FFF750
:102FE000A1FCDDE90F010E9A0391002104910092EA
:102FF000BA4621070CD40399514500DA8A46BAF142
:10300000010F05DD009AAAF10101515C302908D0B9
:10301000B84202DA10F1040F06DA0121CDE90110FD
:1030200015E0AAF10101E9E7002805DC0499014453
:103030000491AAEB000102E0411C514500DD8A46E3
:103040000499401A401C01904FF000400290200764
:1030500004D40198504501DBCDF8048000208DF8A0
:103060004F0002980DF14F07B0F1004F25D02B20F3
:103070000E9002984FF0020800280CDA40420290AD
:103080002D200E9007E00A210298FDF7EEF830316E
:10309000029007F8011DB8F10001A8F10108F2DC67
:1030A00002980028EFD1791E0E980870307800F051
:1030B000200040F0450007F8020D12A8C01B00F1E7
:1030C00007081498007800B1012000EB0A0101986C
:1030D00001EBE07105984144401A401E0590E00361
:1030E00006D45B462146179A059800F05DF8054422
:1030F0001498007818B15A46179990476D1CE00350
:1031000024D55B462146179A059800F04DF80544F2
:103110001CE00498002807DBDDE90301884203DD99
:103120000098405C179901E0179930205A46904763
:10313000049805F10105401C04900198401E01907F
:1031400004D12E205A46179990476D1CBAF1000100
:10315000AAF1010ADDDC05E017F8010B5A461799C0
:1031600090476D1CB8F10001A8F10108F4DC5B4642
:103170002146179A0598ABE62D0000002B000000B1
:10318000200000002DE9F041044600251E461746A8
:10319000880404D405E039462020B0476D1C641E25
:1031A000F9D52846BDE8F0812DE9F0410446002517
:1031B0001E469046C80301D5302700E0202788042A
:1031C00004D505E041463846B0476D1C641EF9D56C
:1031D0002846BDE8F0810A68531C0B6010707047E8
:1031E00000B58BB000200121CDE9060108910090C7
:1031F0000190029003900590049069460C48FDF7F9
:1032000097FB0B48FDF7CCFE02210948FDF719FB9F
:103210000E200990059069460648FDF789FB054890
:10322000FDF7BEFE02210348FDF70BFB0BB000BD0E
:1032300068030020900300202DE9F04100F086F89B
:10324000274D0024A5F11006A5F12007E0B200F0FB
:1032500073F846F8240057F82410B0F9020000EE85
:10326000101AF8EEC00A00EE100A04EBC40005EBD9
:10327000C000B8EEC00AFFF725F8641C64B2042C45
:10328000E4DB95ED3E0ABDEEC00A10EE100A95EDA6
:103290002C0A03B2BDEEC00A10EE100A95ED1A0A10
:1032A00002B2BDEEC00A10EE100A95ED080A01B296
:1032B000BDEEC00A10EE100A00B2FDF751FA00246C
:1032C00056F8240057F82420B0F9021005A000F0A9
:1032D0005DF9641C64B2032CF2DBBDE8F0810000F0
:1032E000E800002025642C25640D0A0070B50E4D01
:1032F00000242DED028B9FED0D8ADFED0D8A00BFBE
:1033000004EBC40005EBC000F0EE480AB0EE680A1A
:10331000084A0021FFF76AF8641C64B2042CEFDB52
:10332000BDEC028B70BD0000E80000200000FA44F4
:1033300000504347C835000800F00300024900EB85
:10334000800001EB400070474400002070B500F0A1
:103350009BF83D49DFED3E1A0860B0F9022000EE0F
:10336000102A3C4AB8EEC01A9FED380AC1EE000A96
:1033700020EEA11A82ED001AB0F9003000EE903A6A
:10338000B8EEE02AC2EE000A60EEA10AC2ED010A20
:10339000B0F9043002EE103AB8EEC22AC2EE002AAA
:1033A00022EEA10A82ED020AB0F90220002A11EEF3
:1033B000102A05DD284B9A4207DB9FED281A04E00E
:1033C000274B9A4201D39FED271ABDEEC11A11EE89
:1033D000102A4A60B0F90030002B10EE903A05DD5B
:1033E000214CA34207DBDFED210A04E0204CA3427D
:1033F00001D3DFED200AFDEEE00A10EE903A8B607B
:10340000B0F90400002810EE100A05DD1A4CA042A5
:1034100007DB9FED1A0A04E0194CA04201D39FED8F
:10342000190ABDEEC00A10EE100AC860991A0C18ED
:1034300008490C310C60D4182518D21A0244001B1C
:103440004D60C1E9022070BD140000200000254439
:103450000000FA44BC00002000504347005043479E
:10346000005043C7005043C70080BB450080BB45A8
:103470000080BBC50080BBC500C0DA4500C0DA458E
:1034800000C0DAC500C0DAC5004870470802002055
:10349000FEF788F8FFF70EF8FEF7AAFEFEF78AFEA1
:1034A000FEF744FEFEF764FEFEF7D0FEFEF7ECFEEC
:1034B000FFF796FE00F008F8FFF718FFFFF7BCFED5
:1034C0000520FDF735FFF9E702492422A1F1240088
:1034D000FEF7BCBF42020020F0B5002855D00029FD
:1034E00053D00278437842EA0322C2F30A020A80E8
:1034F00043788478DB0843EA4413C3F30A034B8020
:103500008478C578A40944EA8504057944EA8524C9
:10351000C4F30A048C80057946796D0845EAC6151E
:10352000C5F30A05CD804679C6F301168E72467939
:10353000B609CE728679C77946EA07268E81067A61
:10354000477A46EA0726CE81867AC77A46EA072670
:103550000E82067B8E74467BCE74867BC77B46EAE2
:1035600007268E82067C407CA2F580620A80A3F545
:1035700080634B80A4F5806446EA00208C80A5F52A
:103580008065CD80A0F580600881F0BD0FB4642314
:1035900070B50A4D05A82C1F2860228808490948E3
:1035A000FEF768FD626806480499FFF789F92080F4
:1035B0000020286070BC5DF814FB00002C00002087
:1035C00066020020FC0300200000204100000000F3
:1035D0000000003F00061016000610160000000054
:1035E00000000000010203040607080900000000B3
:1035F000010203041436000800000020440000000B
:10360000042900085836000844000020BC080000C7
:103610001429000800000000000000000000000065
:10362000000000000000000000000000000000009A
:10363000000000000000000000000000000000008A
:103640000000000000000000010000001000000069
:08365000000000000024F4005A
:04000005080001AD41
:00000001FF
